{
  "_format": "hh-sol-artifact-1",
  "contractName": "PatientRecord",
  "sourceName": "contracts/PatientRecord.sol",
  "abi": [
    {
      "inputs": [
        {
          "internalType": "string",
          "name": "_newCondition",
          "type": "string"
        },
        {
          "internalType": "uint256",
          "name": "patientID",
          "type": "uint256"
        }
      ],
      "name": "addCondition",
      "outputs": [],
      "stateMutability": "nonpayable",
      "type": "function"
    },
    {
      "inputs": [
        {
          "internalType": "uint256",
          "name": "_medicationID",
          "type": "uint256"
        },
        {
          "internalType": "string",
          "name": "_medicationName",
          "type": "string"
        },
        {
          "internalType": "string",
          "name": "_expirationDate",
          "type": "string"
        },
        {
          "internalType": "string",
          "name": "_dosage",
          "type": "string"
        },
        {
          "internalType": "uint256",
          "name": "_price",
          "type": "uint256"
        }
      ],
      "name": "addMedication",
      "outputs": [],
      "stateMutability": "nonpayable",
      "type": "function"
    },
    {
      "inputs": [
        {
          "internalType": "uint256",
          "name": "_patientID",
          "type": "uint256"
        },
        {
          "internalType": "uint256",
          "name": "_medicineID",
          "type": "uint256"
        }
      ],
      "name": "addPrescription",
      "outputs": [],
      "stateMutability": "nonpayable",
      "type": "function"
    },
    {
      "inputs": [
        {
          "internalType": "address",
          "name": "",
          "type": "address"
        }
      ],
      "name": "addressToDoctor",
      "outputs": [
        {
          "internalType": "uint256",
          "name": "doctorID",
          "type": "uint256"
        },
        {
          "internalType": "string",
          "name": "doctorName",
          "type": "string"
        },
        {
          "internalType": "string",
          "name": "specialty",
          "type": "string"
        },
        {
          "internalType": "string",
          "name": "workplace",
          "type": "string"
        }
      ],
      "stateMutability": "view",
      "type": "function"
    },
    {
      "inputs": [
        {
          "internalType": "uint256",
          "name": "_doctorID",
          "type": "uint256"
        }
      ],
      "name": "approveDoctor",
      "outputs": [],
      "stateMutability": "nonpayable",
      "type": "function"
    },
    {
      "inputs": [],
      "name": "counterDoctorID",
      "outputs": [
        {
          "internalType": "uint256",
          "name": "",
          "type": "uint256"
        }
      ],
      "stateMutability": "view",
      "type": "function"
    },
    {
      "inputs": [],
      "name": "counterPatientID",
      "outputs": [
        {
          "internalType": "uint256",
          "name": "",
          "type": "uint256"
        }
      ],
      "stateMutability": "view",
      "type": "function"
    },
    {
      "inputs": [
        {
          "internalType": "uint256",
          "name": "_doctorId",
          "type": "uint256"
        }
      ],
      "name": "getDoctorDetails",
      "outputs": [
        {
          "components": [
            {
              "internalType": "uint256",
              "name": "doctorID",
              "type": "uint256"
            },
            {
              "internalType": "string",
              "name": "doctorName",
              "type": "string"
            },
            {
              "internalType": "string",
              "name": "specialty",
              "type": "string"
            },
            {
              "internalType": "string",
              "name": "workplace",
              "type": "string"
            }
          ],
          "internalType": "struct PatientRecord.Doctor",
          "name": "",
          "type": "tuple"
        }
      ],
      "stateMutability": "view",
      "type": "function"
    },
    {
      "inputs": [
        {
          "internalType": "uint256",
          "name": "",
          "type": "uint256"
        }
      ],
      "name": "idToMedication",
      "outputs": [
        {
          "internalType": "uint256",
          "name": "medicationId",
          "type": "uint256"
        },
        {
          "internalType": "string",
          "name": "medicationName",
          "type": "string"
        },
        {
          "internalType": "string",
          "name": "expirationDate",
          "type": "string"
        },
        {
          "internalType": "string",
          "name": "dosage",
          "type": "string"
        },
        {
          "internalType": "uint256",
          "name": "price",
          "type": "uint256"
        }
      ],
      "stateMutability": "view",
      "type": "function"
    },
    {
      "inputs": [
        {
          "internalType": "uint256",
          "name": "",
          "type": "uint256"
        }
      ],
      "name": "medicationIdToBool",
      "outputs": [
        {
          "internalType": "bool",
          "name": "",
          "type": "bool"
        }
      ],
      "stateMutability": "view",
      "type": "function"
    },
    {
      "inputs": [
        {
          "internalType": "string",
          "name": "_name",
          "type": "string"
        },
        {
          "internalType": "string",
          "name": "_specialty",
          "type": "string"
        },
        {
          "internalType": "string",
          "name": "_workplace",
          "type": "string"
        }
      ],
      "name": "registerNewDoctor",
      "outputs": [],
      "stateMutability": "nonpayable",
      "type": "function"
    },
    {
      "inputs": [
        {
          "internalType": "string",
          "name": "_name",
          "type": "string"
        },
        {
          "internalType": "enum PatientRecord.Gender",
          "name": "_gender",
          "type": "uint8"
        },
        {
          "internalType": "uint8",
          "name": "_age",
          "type": "uint8"
        }
      ],
      "name": "registerNewPatient",
      "outputs": [],
      "stateMutability": "nonpayable",
      "type": "function"
    },
    {
      "inputs": [
        {
          "internalType": "uint8",
          "name": "_age",
          "type": "uint8"
        }
      ],
      "name": "updateMyAge",
      "outputs": [],
      "stateMutability": "nonpayable",
      "type": "function"
    },
    {
      "inputs": [
        {
          "internalType": "address",
          "name": "",
          "type": "address"
        }
      ],
      "name": "verifiedDoctor",
      "outputs": [
        {
          "internalType": "bool",
          "name": "",
          "type": "bool"
        }
      ],
      "stateMutability": "view",
      "type": "function"
    },
    {
      "inputs": [],
      "name": "viewListOfDoctors",
      "outputs": [
        {
          "components": [
            {
              "internalType": "uint256",
              "name": "doctorID",
              "type": "uint256"
            },
            {
              "internalType": "string",
              "name": "doctorName",
              "type": "string"
            },
            {
              "internalType": "string",
              "name": "specialty",
              "type": "string"
            },
            {
              "internalType": "string",
              "name": "workplace",
              "type": "string"
            }
          ],
          "internalType": "struct PatientRecord.Doctor[]",
          "name": "",
          "type": "tuple[]"
        }
      ],
      "stateMutability": "view",
      "type": "function"
    },
    {
      "inputs": [],
      "name": "viewListofMedications",
      "outputs": [
        {
          "components": [
            {
              "internalType": "uint256",
              "name": "medicationId",
              "type": "uint256"
            },
            {
              "internalType": "string",
              "name": "medicationName",
              "type": "string"
            },
            {
              "internalType": "string",
              "name": "expirationDate",
              "type": "string"
            },
            {
              "internalType": "string",
              "name": "dosage",
              "type": "string"
            },
            {
              "internalType": "uint256",
              "name": "price",
              "type": "uint256"
            }
          ],
          "internalType": "struct PatientRecord.Medication[]",
          "name": "",
          "type": "tuple[]"
        }
      ],
      "stateMutability": "view",
      "type": "function"
    },
    {
      "inputs": [],
      "name": "viewMyRecords",
      "outputs": [
        {
          "components": [
            {
              "internalType": "uint256",
              "name": "patientID",
              "type": "uint256"
            },
            {
              "internalType": "string",
              "name": "patientName",
              "type": "string"
            },
            {
              "internalType": "enum PatientRecord.Gender",
              "name": "patientGender",
              "type": "uint8"
            },
            {
              "internalType": "uint8",
              "name": "patientAge",
              "type": "uint8"
            },
            {
              "internalType": "string[]",
              "name": "conditions",
              "type": "string[]"
            },
            {
              "components": [
                {
                  "internalType": "uint256",
                  "name": "medicationId",
                  "type": "uint256"
                },
                {
                  "internalType": "string",
                  "name": "medicationName",
                  "type": "string"
                },
                {
                  "internalType": "string",
                  "name": "expirationDate",
                  "type": "string"
                },
                {
                  "internalType": "string",
                  "name": "dosage",
                  "type": "string"
                },
                {
                  "internalType": "uint256",
                  "name": "price",
                  "type": "uint256"
                }
              ],
              "internalType": "struct PatientRecord.Medication[]",
              "name": "prescriptions",
              "type": "tuple[]"
            }
          ],
          "internalType": "struct PatientRecord.Patient",
          "name": "",
          "type": "tuple"
        }
      ],
      "stateMutability": "view",
      "type": "function"
    },
    {
      "inputs": [
        {
          "internalType": "uint256",
          "name": "_patientID",
          "type": "uint256"
        }
      ],
      "name": "viewPatientRecords",
      "outputs": [
        {
          "components": [
            {
              "internalType": "uint256",
              "name": "patientID",
              "type": "uint256"
            },
            {
              "internalType": "string",
              "name": "patientName",
              "type": "string"
            },
            {
              "internalType": "enum PatientRecord.Gender",
              "name": "patientGender",
              "type": "uint8"
            },
            {
              "internalType": "uint8",
              "name": "patientAge",
              "type": "uint8"
            },
            {
              "internalType": "string[]",
              "name": "conditions",
              "type": "string[]"
            },
            {
              "components": [
                {
                  "internalType": "uint256",
                  "name": "medicationId",
                  "type": "uint256"
                },
                {
                  "internalType": "string",
                  "name": "medicationName",
                  "type": "string"
                },
                {
                  "internalType": "string",
                  "name": "expirationDate",
                  "type": "string"
                },
                {
                  "internalType": "string",
                  "name": "dosage",
                  "type": "string"
                },
                {
                  "internalType": "uint256",
                  "name": "price",
                  "type": "uint256"
                }
              ],
              "internalType": "struct PatientRecord.Medication[]",
              "name": "prescriptions",
              "type": "tuple[]"
            }
          ],
          "internalType": "struct PatientRecord.Patient",
          "name": "",
          "type": "tuple"
        }
      ],
      "stateMutability": "view",
      "type": "function"
    }
  ],
  "bytecode": "0x608060405260016000556001805534801561001957600080fd5b50614693806100296000396000f3fe608060405234801561001057600080fd5b50600436106101165760003560e01c80635de931e4116100a2578063827219bb11610071578063827219bb146102f45780638a63bd18146103245780638c691a4b14610342578063ad86ac8314610360578063b3799fe31461037e57610116565b80635de931e41461026c5780636c3c8c62146102885780637883d4a2146102a45780637f18e263146102c057610116565b80633b6d5b8c116100e95780633b6d5b8c146101b65780634162aa6d146101e657806344f6fe6f1461021657806346216098146102345780634f5bdf1c1461025057610116565b806305a71ab41461011b5780630ec785a41461014b578063168901c71461017e578063181f49761461019a575b600080fd5b610135600480360381019061013091906130e0565b61039c565b6040516101429190613128565b60405180910390f35b610165600480360381019061016091906131a1565b6103bc565b604051610175949392919061326d565b60405180910390f35b6101986004803603810190610193919061338a565b610584565b005b6101b460048036038101906101af91906133fe565b6108b9565b005b6101d060048036038101906101cb91906130e0565b610c51565b6040516101dd9190613508565b60405180910390f35b61020060048036038101906101fb91906131a1565b610f7b565b60405161020d9190613128565b60405180910390f35b61021e610f9b565b60405161022b919061365d565b60405180910390f35b61024e6004803603810190610249919061367f565b61124d565b005b61026a60048036038101906102659190613733565b6114a8565b005b61028660048036038101906102819190613760565b6115e1565b005b6102a2600480360381019061029d91906137c0565b611873565b005b6102be60048036038101906102b991906130e0565b611c16565b005b6102da60048036038101906102d591906130e0565b611e7f565b6040516102eb95949392919061389c565b60405180910390f35b61030e600480360381019061030991906130e0565b61204d565b60405161031b9190613c29565b60405180910390f35b61032c6126a5565b6040516103399190613cd1565b60405180910390f35b61034a612961565b6040516103579190613c29565b60405180910390f35b610368612e41565b6040516103759190613cf3565b60405180910390f35b610386612e47565b6040516103939190613cf3565b60405180910390f35b600d6020528060005260406000206000915054906101000a900460ff1681565b60086020528060005260406000206000915090508060000154908060010180546103e590613d3d565b80601f016020809104026020016040519081016040528092919081815260200182805461041190613d3d565b801561045e5780601f106104335761010080835404028352916020019161045e565b820191906000526020600020905b81548152906001019060200180831161044157829003601f168201915b50505050509080600201805461047390613d3d565b80601f016020809104026020016040519081016040528092919081815260200182805461049f90613d3d565b80156104ec5780601f106104c1576101008083540402835291602001916104ec565b820191906000526020600020905b8154815290600101906020018083116104cf57829003601f168201915b50505050509080600301805461050190613d3d565b80601f016020809104026020016040519081016040528092919081815260200182805461052d90613d3d565b801561057a5780601f1061054f5761010080835404028352916020019161057a565b820191906000526020600020905b81548152906001019060200180831161055d57829003601f168201915b5050505050905084565b8060ff16600081116105cb576040517f08c379a00000000000000000000000000000000000000000000000000000000081526004016105c290613dba565b60405180910390fd5b60001515600560003373ffffffffffffffffffffffffffffffffffffffff1673ffffffffffffffffffffffffffffffffffffffff16815260200190815260200160002060009054906101000a900460ff1615151461065e576040517f08c379a000000000000000000000000000000000000000000000000000000000815260040161065590613e26565b60405180910390fd5b6000600760003373ffffffffffffffffffffffffffffffffffffffff1673ffffffffffffffffffffffffffffffffffffffff1681526020019081526020016000209050600054816000018190555085858260010191826106bf92919061402c565b50838160020160006101000a81548160ff021916908360018111156106e7576106e6613904565b5b0217905550828160020160016101000a81548160ff021916908360ff16021790555033600960008054815260200190815260200160002060006101000a81548173ffffffffffffffffffffffffffffffffffffffff021916908373ffffffffffffffffffffffffffffffffffffffff160217905550600281908060018154018082558091505060019003906000526020600020906005020160009091909190915060008201548160000155600182018160010190816107a69190614112565b506002820160009054906101000a900460ff168160020160006101000a81548160ff021916908360018111156107df576107de613904565b5b02179055506002820160019054906101000a900460ff168160020160016101000a81548160ff021916908360ff1602179055506003820181600301908054610828929190612e4d565b50600482018160040190805461083f929190612eaa565b5050506001600560003373ffffffffffffffffffffffffffffffffffffffff1673ffffffffffffffffffffffffffffffffffffffff16815260200190815260200160002060006101000a81548160ff0219169083151502179055506000808154809291906108ac90614229565b9190505550505050505050565b60011515600660003373ffffffffffffffffffffffffffffffffffffffff1673ffffffffffffffffffffffffffffffffffffffff16815260200190815260200160002060009054906101000a900460ff1615151461094c576040517f08c379a0000000000000000000000000000000000000000000000000000000008152600401610943906142bd565b60405180910390fd5b81600b60003373ffffffffffffffffffffffffffffffffffffffff1673ffffffffffffffffffffffffffffffffffffffff16815260200190815260200160002060006009600084815260200190815260200160002060009054906101000a900473ffffffffffffffffffffffffffffffffffffffff1673ffffffffffffffffffffffffffffffffffffffff1673ffffffffffffffffffffffffffffffffffffffff16815260200190815260200160002060009054906101000a900460ff16610a49576040517f08c379a0000000000000000000000000000000000000000000000000000000008152600401610a409061434f565b60405180910390fd5b8260008111610a8d576040517f08c379a0000000000000000000000000000000000000000000000000000000008152600401610a8490613dba565b60405180910390fd5b8260008111610ad1576040517f08c379a0000000000000000000000000000000000000000000000000000000008152600401610ac890613dba565b60405180910390fd5b60011515600d600086815260200190815260200160002060009054906101000a900460ff16151514610b38576040517f08c379a0000000000000000000000000000000000000000000000000000000008152600401610b2f906143bb565b60405180910390fd5b6000600760006009600089815260200190815260200160002060009054906101000a900473ffffffffffffffffffffffffffffffffffffffff1673ffffffffffffffffffffffffffffffffffffffff1673ffffffffffffffffffffffffffffffffffffffff16815260200190815260200160002090506000600c60008781526020019081526020016000209050816004018190806001815401808255809150506001900390600052602060002090600502016000909190919091506000820154816000015560018201816001019081610c119190614112565b5060028201816002019081610c269190614112565b5060038201816003019081610c3b9190614112565b5060048201548160040155505050505050505050565b610c59612f55565b8160008111610c9d576040517f08c379a0000000000000000000000000000000000000000000000000000000008152600401610c9490613dba565b60405180910390fd5b60011515600560003373ffffffffffffffffffffffffffffffffffffffff1673ffffffffffffffffffffffffffffffffffffffff16815260200190815260200160002060009054906101000a900460ff16151514610d30576040517f08c379a0000000000000000000000000000000000000000000000000000000008152600401610d2790614427565b60405180910390fd5b6000600a600085815260200190815260200160002060009054906101000a900473ffffffffffffffffffffffffffffffffffffffff169050600860008273ffffffffffffffffffffffffffffffffffffffff1673ffffffffffffffffffffffffffffffffffffffff16815260200190815260200160002060405180608001604052908160008201548152602001600182018054610dcc90613d3d565b80601f0160208091040260200160405190810160405280929190818152602001828054610df890613d3d565b8015610e455780601f10610e1a57610100808354040283529160200191610e45565b820191906000526020600020905b815481529060010190602001808311610e2857829003601f168201915b50505050508152602001600282018054610e5e90613d3d565b80601f0160208091040260200160405190810160405280929190818152602001828054610e8a90613d3d565b8015610ed75780601f10610eac57610100808354040283529160200191610ed7565b820191906000526020600020905b815481529060010190602001808311610eba57829003601f168201915b50505050508152602001600382018054610ef090613d3d565b80601f0160208091040260200160405190810160405280929190818152602001828054610f1c90613d3d565b8015610f695780601f10610f3e57610100808354040283529160200191610f69565b820191906000526020600020905b815481529060010190602001808311610f4c57829003601f168201915b50505050508152505092505050919050565b60066020528060005260406000206000915054906101000a900460ff1681565b606060011515600560003373ffffffffffffffffffffffffffffffffffffffff1673ffffffffffffffffffffffffffffffffffffffff16815260200190815260200160002060009054906101000a900460ff16151514611030576040517f08c379a000000000000000000000000000000000000000000000000000000000815260040161102790614427565b60405180910390fd5b6003805480602002602001604051908101604052809291908181526020016000905b8282101561124457838290600052602060002090600402016040518060800160405290816000820154815260200160018201805461108f90613d3d565b80601f01602080910402602001604051908101604052809291908181526020018280546110bb90613d3d565b80156111085780601f106110dd57610100808354040283529160200191611108565b820191906000526020600020905b8154815290600101906020018083116110eb57829003601f168201915b5050505050815260200160028201805461112190613d3d565b80601f016020809104026020016040519081016040528092919081815260200182805461114d90613d3d565b801561119a5780601f1061116f5761010080835404028352916020019161119a565b820191906000526020600020905b81548152906001019060200180831161117d57829003601f168201915b505050505081526020016003820180546111b390613d3d565b80601f01602080910402602001604051908101604052809291908181526020018280546111df90613d3d565b801561122c5780601f106112015761010080835404028352916020019161122c565b820191906000526020600020905b81548152906001019060200180831161120f57829003601f168201915b50505050508152505081526020019060010190611052565b50505050905090565b600660003373ffffffffffffffffffffffffffffffffffffffff1673ffffffffffffffffffffffffffffffffffffffff16815260200190815260200160002060009054906101000a900460ff16156112da576040517f08c379a00000000000000000000000000000000000000000000000000000000081526004016112d190614493565b60405180910390fd5b6001600660003373ffffffffffffffffffffffffffffffffffffffff1673ffffffffffffffffffffffffffffffffffffffff16815260200190815260200160002060006101000a81548160ff0219169083151502179055506000600860003373ffffffffffffffffffffffffffffffffffffffff1673ffffffffffffffffffffffffffffffffffffffff16815260200190815260200160002090506001548160000181905550868682600101918261139392919061402c565b5084848260020191826113a792919061402c565b5082828260030191826113bb92919061402c565b50600381908060018154018082558091505060019003906000526020600020906004020160009091909190915060008201548160000155600182018160010190816114069190614112565b506002820181600201908161141b9190614112565b50600382018160030190816114309190614112565b50505033600a6000600154815260200190815260200160002060006101000a81548173ffffffffffffffffffffffffffffffffffffffff021916908373ffffffffffffffffffffffffffffffffffffffff1602179055506001600081548092919061149a90614229565b919050555050505050505050565b8060ff16600081116114ef576040517f08c379a00000000000000000000000000000000000000000000000000000000081526004016114e690613dba565b60405180910390fd5b60011515600560003373ffffffffffffffffffffffffffffffffffffffff1673ffffffffffffffffffffffffffffffffffffffff16815260200190815260200160002060009054906101000a900460ff16151514611582576040517f08c379a000000000000000000000000000000000000000000000000000000000815260040161157990614427565b60405180910390fd5b81600760003373ffffffffffffffffffffffffffffffffffffffff1673ffffffffffffffffffffffffffffffffffffffff16815260200190815260200160002060020160016101000a81548160ff021916908360ff1602179055505050565b60011515600660003373ffffffffffffffffffffffffffffffffffffffff1673ffffffffffffffffffffffffffffffffffffffff16815260200190815260200160002060009054906101000a900460ff16151514611674576040517f08c379a000000000000000000000000000000000000000000000000000000000815260040161166b906142bd565b60405180910390fd5b80600b60003373ffffffffffffffffffffffffffffffffffffffff1673ffffffffffffffffffffffffffffffffffffffff16815260200190815260200160002060006009600084815260200190815260200160002060009054906101000a900473ffffffffffffffffffffffffffffffffffffffff1673ffffffffffffffffffffffffffffffffffffffff1673ffffffffffffffffffffffffffffffffffffffff16815260200190815260200160002060009054906101000a900460ff16611771576040517f08c379a00000000000000000000000000000000000000000000000000000000081526004016117689061434f565b60405180910390fd5b81600081116117b5576040517f08c379a00000000000000000000000000000000000000000000000000000000081526004016117ac90613dba565b60405180910390fd5b60006009600085815260200190815260200160002060009054906101000a900473ffffffffffffffffffffffffffffffffffffffff169050600760008273ffffffffffffffffffffffffffffffffffffffff1673ffffffffffffffffffffffffffffffffffffffff16815260200190815260200160002060030186869091806001815401808255809150506001900390600052602060002001600090919290919290919290919250918261186a92919061402c565b50505050505050565b60011515600660003373ffffffffffffffffffffffffffffffffffffffff1673ffffffffffffffffffffffffffffffffffffffff16815260200190815260200160002060009054906101000a900460ff16151514611906576040517f08c379a00000000000000000000000000000000000000000000000000000000081526004016118fd906142bd565b60405180910390fd5b876000811161194a576040517f08c379a000000000000000000000000000000000000000000000000000000000815260040161194190613dba565b60405180910390fd5b816000811161198e576040517f08c379a000000000000000000000000000000000000000000000000000000000815260040161198590613dba565b60405180910390fd5b60001515600d60008c815260200190815260200160002060009054906101000a900460ff161515146119f5576040517f08c379a00000000000000000000000000000000000000000000000000000000081526004016119ec906144ff565b60405180910390fd5b6001600d60008c815260200190815260200160002060006101000a81548160ff02191690831515021790555060006040518060a001604052808c81526020018b8b8080601f016020809104026020016040519081016040528093929190818152602001838380828437600081840152601f19601f82011690508083019250505050505050815260200189898080601f016020809104026020016040519081016040528093929190818152602001838380828437600081840152601f19601f82011690508083019250505050505050815260200187878080601f016020809104026020016040519081016040528093929190818152602001838380828437600081840152601f19601f82011690508083019250505050505050815260200185815250905080600c60008d8152602001908152602001600020600082015181600001556020820151816001019081611b4b919061451f565b506040820151816002019081611b61919061451f565b506060820151816003019081611b77919061451f565b50608082015181600401559050506004819080600181540180825580915050600190039060005260206000209060050201600090919091909150600082015181600001556020820151816001019081611bd0919061451f565b506040820151816002019081611be6919061451f565b506060820151816003019081611bfc919061451f565b506080820151816004015550505050505050505050505050565b8060008111611c5a576040517f08c379a0000000000000000000000000000000000000000000000000000000008152600401611c5190613dba565b60405180910390fd5b60011515600560003373ffffffffffffffffffffffffffffffffffffffff1673ffffffffffffffffffffffffffffffffffffffff16815260200190815260200160002060009054906101000a900460ff16151514611ced576040517f08c379a0000000000000000000000000000000000000000000000000000000008152600401611ce490614427565b60405180910390fd5b6001151560066000600a600086815260200190815260200160002060009054906101000a900473ffffffffffffffffffffffffffffffffffffffff1673ffffffffffffffffffffffffffffffffffffffff1673ffffffffffffffffffffffffffffffffffffffff16815260200190815260200160002060009054906101000a900460ff16151514611db3576040517f08c379a0000000000000000000000000000000000000000000000000000000008152600401611daa9061463d565b60405180910390fd5b6001600b6000600a600086815260200190815260200160002060009054906101000a900473ffffffffffffffffffffffffffffffffffffffff1673ffffffffffffffffffffffffffffffffffffffff1673ffffffffffffffffffffffffffffffffffffffff16815260200190815260200160002060003373ffffffffffffffffffffffffffffffffffffffff1673ffffffffffffffffffffffffffffffffffffffff16815260200190815260200160002060006101000a81548160ff0219169083151502179055505050565b600c602052806000526040600020600091509050806000015490806001018054611ea890613d3d565b80601f0160208091040260200160405190810160405280929190818152602001828054611ed490613d3d565b8015611f215780601f10611ef657610100808354040283529160200191611f21565b820191906000526020600020905b815481529060010190602001808311611f0457829003601f168201915b505050505090806002018054611f3690613d3d565b80601f0160208091040260200160405190810160405280929190818152602001828054611f6290613d3d565b8015611faf5780601f10611f8457610100808354040283529160200191611faf565b820191906000526020600020905b815481529060010190602001808311611f9257829003601f168201915b505050505090806003018054611fc490613d3d565b80601f0160208091040260200160405190810160405280929190818152602001828054611ff090613d3d565b801561203d5780601f106120125761010080835404028352916020019161203d565b820191906000526020600020905b81548152906001019060200180831161202057829003601f168201915b5050505050908060040154905085565b612055612f7d565b60011515600660003373ffffffffffffffffffffffffffffffffffffffff1673ffffffffffffffffffffffffffffffffffffffff16815260200190815260200160002060009054906101000a900460ff161515146120e8576040517f08c379a00000000000000000000000000000000000000000000000000000000081526004016120df906142bd565b60405180910390fd5b81600b60003373ffffffffffffffffffffffffffffffffffffffff1673ffffffffffffffffffffffffffffffffffffffff16815260200190815260200160002060006009600084815260200190815260200160002060009054906101000a900473ffffffffffffffffffffffffffffffffffffffff1673ffffffffffffffffffffffffffffffffffffffff1673ffffffffffffffffffffffffffffffffffffffff16815260200190815260200160002060009054906101000a900460ff166121e5576040517f08c379a00000000000000000000000000000000000000000000000000000000081526004016121dc9061434f565b60405180910390fd5b8260008111612229576040517f08c379a000000000000000000000000000000000000000000000000000000000815260040161222090613dba565b60405180910390fd5b600760006009600087815260200190815260200160002060009054906101000a900473ffffffffffffffffffffffffffffffffffffffff1673ffffffffffffffffffffffffffffffffffffffff1673ffffffffffffffffffffffffffffffffffffffff1681526020019081526020016000206040518060c0016040529081600082015481526020016001820180546122c090613d3d565b80601f01602080910402602001604051908101604052809291908181526020018280546122ec90613d3d565b80156123395780601f1061230e57610100808354040283529160200191612339565b820191906000526020600020905b81548152906001019060200180831161231c57829003601f168201915b505050505081526020016002820160009054906101000a900460ff16600181111561236757612366613904565b5b600181111561237957612378613904565b5b81526020016002820160019054906101000a900460ff1660ff1660ff16815260200160038201805480602002602001604051908101604052809291908181526020016000905b8282101561246b5783829060005260206000200180546123de90613d3d565b80601f016020809104026020016040519081016040528092919081815260200182805461240a90613d3d565b80156124575780601f1061242c57610100808354040283529160200191612457565b820191906000526020600020905b81548152906001019060200180831161243a57829003601f168201915b5050505050815260200190600101906123bf565b50505050815260200160048201805480602002602001604051908101604052809291908181526020016000905b8282101561269457838290600052602060002090600502016040518060a0016040529081600082015481526020016001820180546124d590613d3d565b80601f016020809104026020016040519081016040528092919081815260200182805461250190613d3d565b801561254e5780601f106125235761010080835404028352916020019161254e565b820191906000526020600020905b81548152906001019060200180831161253157829003601f168201915b5050505050815260200160028201805461256790613d3d565b80601f016020809104026020016040519081016040528092919081815260200182805461259390613d3d565b80156125e05780601f106125b5576101008083540402835291602001916125e0565b820191906000526020600020905b8154815290600101906020018083116125c357829003601f168201915b505050505081526020016003820180546125f990613d3d565b80601f016020809104026020016040519081016040528092919081815260200182805461262590613d3d565b80156126725780601f1061264757610100808354040283529160200191612672565b820191906000526020600020905b81548152906001019060200180831161265557829003601f168201915b5050505050815260200160048201548152505081526020019060010190612498565b505050508152505092505050919050565b606060011515600660003373ffffffffffffffffffffffffffffffffffffffff1673ffffffffffffffffffffffffffffffffffffffff16815260200190815260200160002060009054906101000a900460ff1615151461273a576040517f08c379a0000000000000000000000000000000000000000000000000000000008152600401612731906142bd565b60405180910390fd5b6004805480602002602001604051908101604052809291908181526020016000905b8282101561295857838290600052602060002090600502016040518060a00160405290816000820154815260200160018201805461279990613d3d565b80601f01602080910402602001604051908101604052809291908181526020018280546127c590613d3d565b80156128125780601f106127e757610100808354040283529160200191612812565b820191906000526020600020905b8154815290600101906020018083116127f557829003601f168201915b5050505050815260200160028201805461282b90613d3d565b80601f016020809104026020016040519081016040528092919081815260200182805461285790613d3d565b80156128a45780601f10612879576101008083540402835291602001916128a4565b820191906000526020600020905b81548152906001019060200180831161288757829003601f168201915b505050505081526020016003820180546128bd90613d3d565b80601f01602080910402602001604051908101604052809291908181526020018280546128e990613d3d565b80156129365780601f1061290b57610100808354040283529160200191612936565b820191906000526020600020905b81548152906001019060200180831161291957829003601f168201915b505050505081526020016004820154815250508152602001906001019061275c565b50505050905090565b612969612f7d565b60011515600560003373ffffffffffffffffffffffffffffffffffffffff1673ffffffffffffffffffffffffffffffffffffffff16815260200190815260200160002060009054906101000a900460ff161515146129fc576040517f08c379a00000000000000000000000000000000000000000000000000000000081526004016129f390614427565b60405180910390fd5b600760003373ffffffffffffffffffffffffffffffffffffffff1673ffffffffffffffffffffffffffffffffffffffff1681526020019081526020016000206040518060c001604052908160008201548152602001600182018054612a6090613d3d565b80601f0160208091040260200160405190810160405280929190818152602001828054612a8c90613d3d565b8015612ad95780601f10612aae57610100808354040283529160200191612ad9565b820191906000526020600020905b815481529060010190602001808311612abc57829003601f168201915b505050505081526020016002820160009054906101000a900460ff166001811115612b0757612b06613904565b5b6001811115612b1957612b18613904565b5b81526020016002820160019054906101000a900460ff1660ff1660ff16815260200160038201805480602002602001604051908101604052809291908181526020016000905b82821015612c0b578382906000526020600020018054612b7e90613d3d565b80601f0160208091040260200160405190810160405280929190818152602001828054612baa90613d3d565b8015612bf75780601f10612bcc57610100808354040283529160200191612bf7565b820191906000526020600020905b815481529060010190602001808311612bda57829003601f168201915b505050505081526020019060010190612b5f565b50505050815260200160048201805480602002602001604051908101604052809291908181526020016000905b82821015612e3457838290600052602060002090600502016040518060a001604052908160008201548152602001600182018054612c7590613d3d565b80601f0160208091040260200160405190810160405280929190818152602001828054612ca190613d3d565b8015612cee5780601f10612cc357610100808354040283529160200191612cee565b820191906000526020600020905b815481529060010190602001808311612cd157829003601f168201915b50505050508152602001600282018054612d0790613d3d565b80601f0160208091040260200160405190810160405280929190818152602001828054612d3390613d3d565b8015612d805780601f10612d5557610100808354040283529160200191612d80565b820191906000526020600020905b815481529060010190602001808311612d6357829003601f168201915b50505050508152602001600382018054612d9990613d3d565b80601f0160208091040260200160405190810160405280929190818152602001828054612dc590613d3d565b8015612e125780601f10612de757610100808354040283529160200191612e12565b820191906000526020600020905b815481529060010190602001808311612df557829003601f168201915b5050505050815260200160048201548152505081526020019060010190612c38565b5050505081525050905090565b60015481565b60005481565b828054828255906000526020600020908101928215612e995760005260206000209182015b82811115612e985782829081612e889190614112565b5091600101919060010190612e72565b5b509050612ea69190612fc8565b5090565b828054828255906000526020600020906005028101928215612f445760005260206000209160050282015b82811115612f435782826000820154816000015560018201816001019081612efd9190614112565b5060028201816002019081612f129190614112565b5060038201816003019081612f279190614112565b5060048201548160040155505091600501919060050190612ed5565b5b509050612f519190612fec565b5090565b6040518060800160405280600081526020016060815260200160608152602001606081525090565b6040518060c00160405280600081526020016060815260200160006001811115612faa57612fa9613904565b5b8152602001600060ff16815260200160608152602001606081525090565b5b80821115612fe85760008181612fdf9190613043565b50600101612fc9565b5090565b5b8082111561303f5760008082016000905560018201600061300e9190613043565b60028201600061301e9190613043565b60038201600061302e9190613043565b600482016000905550600501612fed565b5090565b50805461304f90613d3d565b6000825580601f106130615750613080565b601f01602090049060005260206000209081019061307f9190613083565b5b50565b5b8082111561309c576000816000905550600101613084565b5090565b600080fd5b600080fd5b6000819050919050565b6130bd816130aa565b81146130c857600080fd5b50565b6000813590506130da816130b4565b92915050565b6000602082840312156130f6576130f56130a0565b5b6000613104848285016130cb565b91505092915050565b60008115159050919050565b6131228161310d565b82525050565b600060208201905061313d6000830184613119565b92915050565b600073ffffffffffffffffffffffffffffffffffffffff82169050919050565b600061316e82613143565b9050919050565b61317e81613163565b811461318957600080fd5b50565b60008135905061319b81613175565b92915050565b6000602082840312156131b7576131b66130a0565b5b60006131c58482850161318c565b91505092915050565b6131d7816130aa565b82525050565b600081519050919050565b600082825260208201905092915050565b60005b838110156132175780820151818401526020810190506131fc565b60008484015250505050565b6000601f19601f8301169050919050565b600061323f826131dd565b61324981856131e8565b93506132598185602086016131f9565b61326281613223565b840191505092915050565b600060808201905061328260008301876131ce565b81810360208301526132948186613234565b905081810360408301526132a88185613234565b905081810360608301526132bc8184613234565b905095945050505050565b600080fd5b600080fd5b600080fd5b60008083601f8401126132ec576132eb6132c7565b5b8235905067ffffffffffffffff811115613309576133086132cc565b5b602083019150836001820283011115613325576133246132d1565b5b9250929050565b6002811061333957600080fd5b50565b60008135905061334b8161332c565b92915050565b600060ff82169050919050565b61336781613351565b811461337257600080fd5b50565b6000813590506133848161335e565b92915050565b600080600080606085870312156133a4576133a36130a0565b5b600085013567ffffffffffffffff8111156133c2576133c16130a5565b5b6133ce878288016132d6565b945094505060206133e18782880161333c565b92505060406133f287828801613375565b91505092959194509250565b60008060408385031215613415576134146130a0565b5b6000613423858286016130cb565b9250506020613434858286016130cb565b9150509250929050565b613447816130aa565b82525050565b600082825260208201905092915050565b6000613469826131dd565b613473818561344d565b93506134838185602086016131f9565b61348c81613223565b840191505092915050565b60006080830160008301516134af600086018261343e565b50602083015184820360208601526134c7828261345e565b915050604083015184820360408601526134e1828261345e565b915050606083015184820360608601526134fb828261345e565b9150508091505092915050565b600060208201905081810360008301526135228184613497565b905092915050565b600081519050919050565b600082825260208201905092915050565b6000819050602082019050919050565b600060808301600083015161356e600086018261343e565b5060208301518482036020860152613586828261345e565b915050604083015184820360408601526135a0828261345e565b915050606083015184820360608601526135ba828261345e565b9150508091505092915050565b60006135d38383613556565b905092915050565b6000602082019050919050565b60006135f38261352a565b6135fd8185613535565b93508360208202850161360f85613546565b8060005b8581101561364b578484038952815161362c85826135c7565b9450613637836135db565b925060208a01995050600181019050613613565b50829750879550505050505092915050565b6000602082019050818103600083015261367781846135e8565b905092915050565b6000806000806000806060878903121561369c5761369b6130a0565b5b600087013567ffffffffffffffff8111156136ba576136b96130a5565b5b6136c689828a016132d6565b9650965050602087013567ffffffffffffffff8111156136e9576136e86130a5565b5b6136f589828a016132d6565b9450945050604087013567ffffffffffffffff811115613718576137176130a5565b5b61372489828a016132d6565b92509250509295509295509295565b600060208284031215613749576137486130a0565b5b600061375784828501613375565b91505092915050565b600080600060408486031215613779576137786130a0565b5b600084013567ffffffffffffffff811115613797576137966130a5565b5b6137a3868287016132d6565b935093505060206137b6868287016130cb565b9150509250925092565b60008060008060008060008060a0898b0312156137e0576137df6130a0565b5b60006137ee8b828c016130cb565b985050602089013567ffffffffffffffff81111561380f5761380e6130a5565b5b61381b8b828c016132d6565b9750975050604089013567ffffffffffffffff81111561383e5761383d6130a5565b5b61384a8b828c016132d6565b9550955050606089013567ffffffffffffffff81111561386d5761386c6130a5565b5b6138798b828c016132d6565b9350935050608061388c8b828c016130cb565b9150509295985092959890939650565b600060a0820190506138b160008301886131ce565b81810360208301526138c38187613234565b905081810360408301526138d78186613234565b905081810360608301526138eb8185613234565b90506138fa60808301846131ce565b9695505050505050565b7f4e487b7100000000000000000000000000000000000000000000000000000000600052602160045260246000fd5b6002811061394457613943613904565b5b50565b600081905061395582613933565b919050565b600061396582613947565b9050919050565b6139758161395a565b82525050565b61398481613351565b82525050565b600081519050919050565b600082825260208201905092915050565b6000819050602082019050919050565b60006139c2838361345e565b905092915050565b6000602082019050919050565b60006139e28261398a565b6139ec8185613995565b9350836020820285016139fe856139a6565b8060005b85811015613a3a5784840389528151613a1b85826139b6565b9450613a26836139ca565b925060208a01995050600181019050613a02565b50829750879550505050505092915050565b600081519050919050565b600082825260208201905092915050565b6000819050602082019050919050565b600060a083016000830151613a90600086018261343e565b5060208301518482036020860152613aa8828261345e565b91505060408301518482036040860152613ac2828261345e565b91505060608301518482036060860152613adc828261345e565b9150506080830151613af1608086018261343e565b508091505092915050565b6000613b088383613a78565b905092915050565b6000602082019050919050565b6000613b2882613a4c565b613b328185613a57565b935083602082028501613b4485613a68565b8060005b85811015613b805784840389528151613b618582613afc565b9450613b6c83613b10565b925060208a01995050600181019050613b48565b50829750879550505050505092915050565b600060c083016000830151613baa600086018261343e565b5060208301518482036020860152613bc2828261345e565b9150506040830151613bd7604086018261396c565b506060830151613bea606086018261397b565b5060808301518482036080860152613c0282826139d7565b91505060a083015184820360a0860152613c1c8282613b1d565b9150508091505092915050565b60006020820190508181036000830152613c438184613b92565b905092915050565b600082825260208201905092915050565b6000613c6782613a4c565b613c718185613c4b565b935083602082028501613c8385613a68565b8060005b85811015613cbf5784840389528151613ca08582613afc565b9450613cab83613b10565b925060208a01995050600181019050613c87565b50829750879550505050505092915050565b60006020820190508181036000830152613ceb8184613c5c565b905092915050565b6000602082019050613d0860008301846131ce565b92915050565b7f4e487b7100000000000000000000000000000000000000000000000000000000600052602260045260246000fd5b60006002820490506001821680613d5557607f821691505b602082108103613d6857613d67613d0e565b5b50919050565b7f56616c7565206d7573742062652067726561746572207468616e203021000000600082015250565b6000613da4601d836131e8565b9150613daf82613d6e565b602082019050919050565b60006020820190508181036000830152613dd381613d97565b9050919050565b7f50617469656e742068617320616c726561647920726567697374657265642100600082015250565b6000613e10601f836131e8565b9150613e1b82613dda565b602082019050919050565b60006020820190508181036000830152613e3f81613e03565b9050919050565b600082905092915050565b7f4e487b7100000000000000000000000000000000000000000000000000000000600052604160045260246000fd5b60008190508160005260206000209050919050565b60006020601f8301049050919050565b600082821b905092915050565b600060088302613ee27fffffffffffffffffffffffffffffffffffffffffffffffffffffffffffffffff82613ea5565b613eec8683613ea5565b95508019841693508086168417925050509392505050565b6000819050919050565b6000613f29613f24613f1f846130aa565b613f04565b6130aa565b9050919050565b6000819050919050565b613f4383613f0e565b613f57613f4f82613f30565b848454613eb2565b825550505050565b600090565b613f6c613f5f565b613f77818484613f3a565b505050565b5b81811015613f9b57613f90600082613f64565b600181019050613f7d565b5050565b601f821115613fe057613fb181613e80565b613fba84613e95565b81016020851015613fc9578190505b613fdd613fd585613e95565b830182613f7c565b50505b505050565b600082821c905092915050565b600061400360001984600802613fe5565b1980831691505092915050565b600061401c8383613ff2565b9150826002028217905092915050565b6140368383613e46565b67ffffffffffffffff81111561404f5761404e613e51565b5b6140598254613d3d565b614064828285613f9f565b6000601f8311600181146140935760008415614081578287013590505b61408b8582614010565b8655506140f3565b601f1984166140a186613e80565b60005b828110156140c9578489013582556001820191506020850194506020810190506140a4565b868310156140e657848901356140e2601f891682613ff2565b8355505b6001600288020188555050505b50505050505050565b60008154905061410b81613d3d565b9050919050565b8181036141205750506141f8565b614129826140fc565b67ffffffffffffffff81111561414257614141613e51565b5b61414c8254613d3d565b614157828285613f9f565b6000601f8311600181146141865760008415614174578287015490505b61417e8582614010565b8655506141f1565b601f19841661419487613e80565b965061419f86613e80565b60005b828110156141c7578489015482556001820191506001850194506020810190506141a2565b868310156141e457848901546141e0601f891682613ff2565b8355505b6001600288020188555050505b5050505050505b565b7f4e487b7100000000000000000000000000000000000000000000000000000000600052601160045260246000fd5b6000614234826130aa565b91507fffffffffffffffffffffffffffffffffffffffffffffffffffffffffffffffff8203614266576142656141fa565b5b600182019050919050565b7f4e6f74206120646f63746f722100000000000000000000000000000000000000600082015250565b60006142a7600d836131e8565b91506142b282614271565b602082019050919050565b600060208201905081810360008301526142d68161429a565b9050919050565b7f446f63746f7220646f6573206e6f74206861766520617070726f76616c20746f60008201527f20747265617420746869732070617469656e7421000000000000000000000000602082015250565b60006143396034836131e8565b9150614344826142dd565b604082019050919050565b600060208201905081810360008301526143688161432c565b9050919050565b7f4d656469636174696f6e206e6f74207265676973746572656421000000000000600082015250565b60006143a5601a836131e8565b91506143b08261436f565b602082019050919050565b600060208201905081810360008301526143d481614398565b9050919050565b7f4e6f7420612070617469656e7421000000000000000000000000000000000000600082015250565b6000614411600e836131e8565b915061441c826143db565b602082019050919050565b6000602082019050818103600083015261444081614404565b9050919050565b7f446f63746f722068617320616c72656164792072656769737465726564210000600082015250565b600061447d601e836131e8565b915061448882614447565b602082019050919050565b600060208201905081810360008301526144ac81614470565b9050919050565b7f4d656469636174696f6e20616c72656164792072656769737465726564210000600082015250565b60006144e9601e836131e8565b91506144f4826144b3565b602082019050919050565b60006020820190508181036000830152614518816144dc565b9050919050565b614528826131dd565b67ffffffffffffffff81111561454157614540613e51565b5b61454b8254613d3d565b614556828285613f9f565b600060209050601f8311600181146145895760008415614577578287015190505b6145818582614010565b8655506145e9565b601f19841661459786613e80565b60005b828110156145bf5784890151825560018201915060208501945060208101905061459a565b868310156145dc57848901516145d8601f891682613ff2565b8355505b6001600288020188555050505b505050505050565b7f5468697320646f63746f72206973206e6f742072656769737465726564210000600082015250565b6000614627601e836131e8565b9150614632826145f1565b602082019050919050565b600060208201905081810360008301526146568161461a565b905091905056fea2646970667358221220a18e1cf21274edb7d3f556f75863885a2ae0e70c5ef59f2bfbcf2022f1c904a764736f6c63430008110033",
  "linkReferences": {},
  "deployedLinkReferences": {}
}